:020000040000FA
:0600000077EF0BF0120087
:020006001200E6
:060008008EEF07F012006C
:02000E00256368
:0100100000EF
:020012001200DA
:02001400FEFFED
:0600180087EF08F0120062
:02001E000200DE
:1000200014000000A9000000020000004D170000AD
:08003000800000001000000038
:0800380058EC05F0FB0EDBCFD4
:10004000F3FFDB06F35000090AE0A6EC05F0FA0E18
:1000500011EC06F0F3E1151CF1E1010E01D0000EE8
:1000600087EF05F058EC05F03B0EE12402E3E16870
:10007000E652E16E010EDB6A020EDB6AF90EDBCF9F
:10008000F6FFFA0EDBCFF7FFFB0EDBCFF8FF080021
:10009000F550DF6EDF5002E1ABEF04F0250EDF5CC0
:1000A00002E09EEF04F0030EDB6A040EDB6A050E2D
:1000B000DB6A060EDB6A070EDB6AC0EC04F02D0E6D
:1000C000DF5C0CE02B0EDF5C09E0200EDF5C06E05D
:1000D000230EDF5C03E0300EDF5C1AE1DF50300AF4
:1000E00014E0130A0FE0030A0AE00B0A05E0060A0F
:1000F000E4E1030EDB80E1D7030EDB82DED7030EE3
:10010000DB84DBD7030EDB86D8D7030EDB88D5D79D
:100110002A0EDF5C1BE1BCEC04F00AEC05F010E0F9
:10012000030EDB8008680968130EDBCF0DF0140E98
:10013000DBCF0EF012EC09F0040E06C0DBFF03D09B
:10014000130EF3EC04F0C0EC04F00BD0090EDB6AE4
:1001500061EC05F003E0D5EC05F0FAD7090EF3ECFD
:1001600004F0030EDBB0DB982E0EDF5C1BE1C0EC6D
:1001700004F02A0EDF5C0BE1BCEC04F00AEC05F0A5
:1001800003E1130E45EC05F0C0EC04F00BD0090EB2
:10019000DB6A61EC05F003E0D5EC05F0FAD7090E57
:1001A00045EC05F0680EDF5C07E1C0EC04F0680E7A
:1001B000DF5C1DE1030E18D0740EDF5C17E07A0ED1
:1001C000DF5C14E0480EDF5C06E0540EDF5C03E009
:1001D0005A0EDF5C02E1020E07D06C0EDF5C03E01A
:1001E0006A0EDF5C04E1010E98EC05F0C9DBDF501C
:1001F0006E0A01E17FD31E0A01E192D1200A01E1DA
:100200008FD13F0A01E149D11A0A01E146D10D0A15
:1002100001E143D1200A01E140D13A0A01E13DD197
:10022000200A01E13AD1260A01E135D10D0A01E1A6
:1002300032D11A0A01E1D9D0200A4AE0300A1FE07F
:10024000460A0EE0250A01E083D3D950F90FE96E82
:10025000FF0EDA20EA6E010EEE5E000EEE5AEE5A46
:10026000A6EC05F0250EE66E95DB03E1151C01E119
:1002700069D3A2EC05F001E26BD3DB2A69D3080E47
:10028000DB6A040EDB50010806E2040EDB046AECB4
:1002900005F0DB508BDB080EDB5009E0030EDB5072
:1002A000010B05E172DB01E04DD3080EDB6A64DB74
:1002B000EFCFDFFF1AEC06F003E1151C01E142D39A
:1002C000A2EC05F001E3DB2A60DB01E141D33AD384
:1002D000070EDB5002080FE1E6EC05F0030EADEC73
:1002E00005F00E0EEECFDBFF0F0EEECFDBFF100E94
:1002F000EECFDBFF20D0F70EDBCF17F0F80EDBCF11
:1003000018F0020E175E000E185AF70E17C0DBFF2A
:10031000F80E18C0DBFF17C0E9FF18C0EAFF9DEC1C
:1003200005F0166A0E0E14C0DBFF0F0E15C0DBFFC2
:10033000100E16C0DBFF0E0EDBCFE6FF0F0EDBCF7D
:10034000E6FF100EDBCFE6FFA7EC0AF0E552E55220
:10035000E552130E07C0DBFF140E08C0DBFF060ECC
:10036000DB5005E0130EE1EC05F001E26ADB05EC81
:1003700006F002E2130E37DBC8EC05F006E0040ECF
:10038000E1EC05F002E2050E2EDB030EDBB005D03A
:10039000FCDA01E0D7D2080EDB6A090EDB6A0E0E2A
:1003A000DBCFF6FF0F0EDBCFF7FF100EDBCFF8FF32
:1003B0000800F550DF6EDF5014E00BEC06F011E2A0
:1003C0001AEC06F003E1151C01E1BCD2BBDB01E332
:1003D000DB2A090EDB2AD9500E0FE96E000ECBDBAB
:1003E000E7D7D3DA01E1B4D2ADD2C6DA110EEECF3F
:1003F000DBFF120EEDCFDBFF110EDBCFE6FF120E9F
:10040000DBCFE6FF99EC0AF0E552E552130EF3CF8D
:10041000DBFF140EF4CFDBFF060EDB5004E0130EFF
:10042000D0DB01E20EDB05EC06F002E2130EDBDAB4
:10043000AFDB05E0040EC5DB02E2050ED4DA030EE5
:10044000DBB005D0A2DA01E07DD2080EDB6A090E2E
:10045000DB6A110EDBCFE9FF120EDBCFEAFFEFCF35
:10046000DFFFDF5014E0D7DB12E2E4DB03E1151C11
:1004700001E168D267DB01E3DB2A090EDB2A110EFA
:10048000DB2ADBCFE9FF120EE8E3DB2AE6D77DDAD1
:1004900001E15ED257D2030EDB8E070EDB0410E1C2
:1004A00095DB040E5ADB0A0EEECFDBFF0B0EEECF10
:1004B000DBFF0C0EEECFDBFF0D0EEECFDBFF6CD0C3
:1004C000070EDB5003082CE1030EDBAE0DD0B2DAD1
:1004D000020E76DAEFCF14F0156A166A176A14AEB8
:1004E00039D01568166835D0F70EDBCF15F0F80E49
:1004F000DBCF16F0020E155E000E165AF70E15C071
:10050000DBFFF80E16C0DBFF15C0E9FF16C0EAFFDF
:10051000EFCF14F00A0E14C0DBFF0B0EDB6A38D0ED
:10052000070EDB50020809E1030EDBAE04D059DBF5
:1005300016AE10D00ED055DB0DD0030EDBAE12D0B0
:1005400079DA020E3DDAF9DA166A176A15AE02D0C8
:1005500016681768E2DA0C0E16C0DBFF0D0E17C026
:10056000DBFF1AD0F70EDBCF16F0F80EDBCF17F05B
:10057000020E165E000E175AF70E16C0DBFFF80EBD
:1005800017C0DBFF16C0E9FF17C0EAFFD6DAC5DAED
:100590000C0EDB6A0D0EDB6A060EDB5005E1010E68
:1005A000F36E050EF3CFDBFF150EDB6A160EDB6A6A
:1005B000D950370F146E000EDA20156E390E14C0A4
:1005C000DBFF3A0E15C0DBFF380EDB6A080EDB6A74
:1005D0000A0EAEDADF50780A12E0200A10E0280A8C
:1005E0000CE0200A0AE03F0A06E00D0A02E0200AB9
:1005F00008E1020E05D0080E03D0080EDF26100E0B
:1006000097DA030EDBBE02D0DB92DB94DB50800B6B
:1006100024E08ADAD890030EEB50000A08E6000EB8
:10062000EE5C000EEE58000EEE58000EEE5815E28D
:1006300013DA0B680C680D680E6861EC0AF00A0E9C
:1006400002C0DBFF0B0E03C0DBFF0C0E04C0DBFFA0
:100650000D0E05C0DBFF2D0E08D0030EDBA202D06D
:100660002B0E03D0DBA408D0200EF36E170EF3CFB1
:10067000DBFF150EDB2A02D0170EDB6A050EDB50FE
:1006800003E1B7D901E189D03C0E146E170E156E47
:10069000000E166E070EDBCF17F0186A196A1A6A79
:1006A00017C00BF018C00CF019C00DF01AC00EF0F6
:1006B000D3D9CCEC0AF014500224F36E1550032069
:1006C000F46E16500420F86EF4CFF7FFF3CFF6FF68
:1006D0000800090EF5CFDBFF580EDF5C0FE1610E5D
:1006E000F36E090E7BD90AE3200E146E090EDBCFE0
:1006F000E7FF1450E75E090EE7CFDBFF070EDBCF05
:1007000014F0156A166A176A0FDA14C00BF015C0D8
:100710000CF016C00DF017C00EF0EECF06F0EECFC5
:1007200007F0EECF08F0EFCF09F0CCEC0AF009C0EB
:10073000EDFF08C0EDFF07C0EDFF06C0EFFF390E6B
:10074000DBCFE9FFDB063A0EDBCFEAFF01E2DB0697
:10075000090EDBCFEFFF150EDB2A4BD995E1030E17
:10076000DBA61DD06F0EDF5C06E1C1D918E3150EC4
:10077000DB285BDA14D0780EDF5C09E0580EDF5C12
:1007800006E0620EDF5C03E0420EDF5C08E1020E71
:10079000F36E160EF3CFDBFF02D0150EDB6A030EED
:1007A000DB50100B0EE0040EDBCF14F0050EDB5017
:1007B000D880145406E2060EDB5003E1040EDB5031
:1007C00034DA95D90AE2050EDBCFE7FF150EDB50D0
:1007D000E75E050EE7CFDBFF02D0050EDB6A040EF5
:1007E000DBCF14F0160E45D9D880145414E2160E3F
:1007F000DBCFE6FF150EDBCFE6FF040EDBCFE6FF17
:10080000050EDB50E552E75CE552D880E754E5522F
:10081000D880E7545FD9030EDB50010B0BE1080EC3
:10082000DB5008E0B2D801E08DD0080EDB50BED816
:10083000080EDB6A170EDB5007E088D9170EF1D9D6
:1008400003E1151C01E17ED0160EDB5016E07ED9C7
:10085000300EE66E9FD802E1151C74E077D9DFCF29
:10086000E6FF1FEC0AF0E552E552E552F4CF15F031
:100870000001F31C02E1151C65E0050EDBCF14F04E
:10088000160EDB50D880145409E2050EDBCFE7FFCB
:10089000160EDB50E75E050EE7CFDBFF300EE66E8F
:1008A000050ECBD94FE1390EDB2ADBCFE9FF3A0E3B
:1008B00001E3DB2ADBCFEAFF090EEFCFDBFFDB50E2
:1008C0000EE044D9090EADD902E1151C3BE0390E0A
:1008D000DB2ADBCFE9FF3A0EEDE3DB2AEBD755D875
:1008E00031E1160EDBCFE6FF080EC3D8E552E72450
:1008F0005DD82ED0070EDB50030A1CE0010A14E07D
:10090000030A07E07BD9DBCFEEFF020EDBCFEDFF62
:100910001FD0F5D8196A17AE02D0186819682CD8FC
:10092000BCD819C0EEFF14D0EAD817BE186824D876
:10093000B4D80ED063D9DBCFEFFF0AD07BD905E165
:10094000151C03E1F368F46810D0FCD801E3DB2A3E
:1009500079D947EF00F0010EDBCF14F0020EDBCFA8
:1009600015F014C0F3FF15C0F4FF3B0EE15C02E28A
:10097000E16AE552E16ECBD029D9020EADEF05F068
:1009800061D90800F550DF6E1200200EE66E080EE9
:100990001DEF06F01FEC0AF0E552E552E552F3CFE9
:1009A00014F0F4CF15F00001F31C1200146E156A58
:1009B000D950010F4DD91450EE261550ED221200DA
:1009C000185E000E195AF70E18C0DBFFF80E19C09A
:1009D000DBFF18C0E9FF19C0EAFF1200DBCFF4FF0C
:1009E000F350F45C1200DB50E76E040EE7CFDBFF40
:1009F00012000A0EDBCF14F00B0EDBCF15F00C0E3D
:100A0000DBCF16F00D0EDBCF17F0145015101610BB
:100A100017101200130EEECFDBFF140EEDCFDBFF2D
:100A2000130EDBCF14F0140EDBCF15F00001800E97
:100A300015141200F70EDBCF18F0F80EDBCF19F00B
:100A40001200050EDB50E66ED950130F01D9E552A6
:100A5000E750EE6EED6A12000A0EDBCF06F00B0EC9
:100A6000DBCF07F00C0EDBCF08F00D0EDBCF09F06B
:100A70001200DBCFE6FF150EDBCFE6FF050EDB50E5
:100A8000E552E724E552E7241200DB50CED8010EF0
:100A9000F36E060EF3CFDBFF1200EE50EFCFEAFF4E
:100AA000E96E16C0EEFF17C0EEFF18C0EEFF120091
:100AB000D9CFE6FFDACFE6FFE1CFD9FFE2CFDAFF09
:100AC0001200DFCFE6FFE66A55EC0BF0E552E55287
:100AD000F3501200E76E080EE7CFDBFF1200EECFF7
:100AE00014F0EECF15F0EFCF16F0176A1200050ED6
:100AF000DBCF14F0150EDB50D88014541200010E19
:100B0000DBCF16F0020EDBCF17F0186A1200E552A9
:100B1000E5CFDAFFE7CFD9FF12000A0E14C0DBFFE2
:100B20000B0E15C0DBFF1200D9500A0F28EF06F09C
:100B3000F36E070EF3CFDBFF1200EECF14F0EFCF12
:100B400015F01200010EDB2A020E1200FC0EDBCFA4
:100B5000E6FFFD0EDBCFE6FF1200145E000E155A15
:100B6000F70E14C0DBFFF80E15C0DBFF14C0E9FF61
:100B700015C0EAFF1200DA20EA6EEF2AEECFF6FF88
:100B8000000EEF22EECFF7FFEF22EECFF8FF1200BC
:100B9000040EDBCFE6FF130EDB50E552E75C9ADF75
:100BA000DB5004DF060EDB501200090EDB500A0D8D
:100BB000F350DF24D00FE76E090EE7CFDBFFC0EF65
:100BC00004F0DB50F36E050EEEEF04F0F70EDBCF12
:100BD00014F0F80EDBCF15F01200DFCFE6FFCAEFFE
:100BE00004F028DF030EECDE6FEF05F01CEC00F0E4
:100BF000E552E552E552E55200091200BDDEEE5025
:100C0000EFCFEAFFE96E010E1200130EDB50F36E18
:100C1000040EEEEF04F0040EDB50F36E090EEEEF5F
:100C200004F0DBCFE6FFCAEF04F0E76E050EE7CF76
:100C3000DBFF12008BDFEDEF05F0DBCFE6FF86DF99
:100C4000F6EF05F0D950F90FE96EFF0EBBEF05F096
:0A0C5000E96E000EDA20EA6E1200D1
:060C5A00D38CD38AD3986D
:100C6000900EE66E0CEC0BF0E5520F0EC16E926822
:100C70009368946A956A826AD08EF28EF28CF28AB8
:100C8000F194190EE66EE66A7C0EE66EDAEC09F077
:100C9000E552E552E5529D8A9F8A770EE66EEC0E8C
:100CA000E66EF0EC0AF0E552E552836A140E826EAD
:100CB0000001826B836B8050040B19E18251831118
:100CC00016E1010E826F836B300EE66EE66A0E0E41
:100CD000146E000E156E166A14C0E6FFE66E16C09E
:100CE000E6FF8EEC09F0176E050EE15E175080509E
:100CF000080B1AE100018251831116E1010E826F87
:100D0000836B310EE66EE66A0E0E146E000E156EE3
:100D1000166A14C0E6FFE66E16C0E6FF8EEC09F018
:100D2000176E050EE15E17508050100B1AE100019E
:100D30008251831116E1010E826F836B320EE66ED3
:100D4000E66A0E0E146E000E156E166A14C0E6FFEB
:100D5000E66E16C0E6FF8EEC09F0176E050EE15E3A
:100D600017508050200B1BE100018251831117E1C5
:100D7000010E826F836B330EE66EE66A0E0E146E02
:100D8000000E156E166A14C0E6FFE66E16C0E6FF8A
:100D90008EEC09F0176E050EE15E17500FD08050F3
:100DA000040B0CE08050080B09E08050100B06E0AB
:100DB0008050200B03E00001826B836B8AC0E6FF4A
:100DC0008BC0E6FF44D8E552E55200018251E8B0FD
:100DD0008384E8A08394826A6ED70C0E826E010E23
:100DE000E66E28EC0BF0E5520A0E826E010EE66EFE
:100DF00028EC0BF0E552120E826E010EE66E28EC26
:100E00000BF0E552140E826E010EE66E28EC0BF02C
:100E1000E55212000C0E826E010EE66E28EC0BF00D
:100E2000E552140E826E010EE66E28EC0BF0E552D0
:100E3000120E826E010EE66E28EC0BF0E5520A0EE1
:100E4000826E010EE66E28EC0BF0E5521200D9CF4F
:100E5000E6FFE1CFD9FF88C014F089C015F0FD0E80
:100E6000DB50141806E1FE0EDB50151802E1826A11
:100E700051D0FD0EDBCF14F0FE0EDBCF15F00001DC
:100E800015508919E8AE02D0893504D08851145C18
:100E9000895115581CE2FD0EDBCF90F0FE0EDBCF22
:100EA00091F00001915100018919E8AE02D0893515
:100EB00007D088510001905D0001895100019159CE
:100EC00022E28BDF0001902B000E9123EAD788C02D
:100ED00090F089C091F0FD0EDBCF14F0FE0EDBCF59
:100EE00015F0000191511518E8AE02D0153404D068
:100EF0001450905D1550915906E28CDF0001902B43
:100F0000000E9123E8D7826AFD0EDBCF88F0FE0E3B
:100F1000DBCF89F0E552E7CFD9FF1200DACFE4FF4B
:100F2000E2CFDAFFE9CFE4FFEACFE4FFF6CFE4FF58
:100F3000F7CFE4FFF3CFE4FFF4CFE4FFFACFE4FF11
:100F400000EE00F0140EE80403E3EECFE4FFFBD75D
:100F5000E6529EAAC2D09E9AAECF9EF0410E0001EC
:100F60009E5D05E100018E6B8F6B010E07D0450E73
:100F70009E5D07E100018E6B8F6B020E846F856BA7
:100F8000ACD0030E00018FAF02D0D89003D08E5D9D
:100F9000000E8F5938E2853536E284510008000E84
:100FA000855531E2010E841914E1855112E1300EAC
:100FB00000019E5D1B6E1C6A1BBE1C688EC0E9FF93
:100FC0008FC0EAFFD890E936EA36920EE926000E85
:100FD00011D0300E00019E5D1B6E1C6A1BBE1C688A
:100FE0008EC0E9FF8FC0EAFFD890E936EA36980E46
:100FF000E926000EEA221BC0EEFF1CC0EDFF000137
:101000008E2B000E8F23030E8E1967E18F5165E141
:10101000010E841936E1855134E192C01DF093C070
:101020001EF0640E1E02F3CF1EF01D02F3CF1DF062
:10103000F4501E260A0E086E096A94C00DF095C081
:101040000EF012EC09F01D5006241B6E1E500720F6
:101050001C6E1B500001962500018A6F1C50000178
:10106000972100018B6F040E0D6E0E6A8AC008F086
:101070008BC009F0ECEC08F008C08AF009C08BF0D6
:1010800026D098C01DF099C01EF0640E1E02F3CF4A
:101090001EF01D02F3CF1DF0F4501E260A0E086E3E
:1010A000096A9AC00DF09BC00EF012EC09F01D50B9
:1010B00006241B6E1E5007201C6E1B5000019C2531
:1010C00000018C6F1C5000019D2100018D6F030EEB
:1010D0000001846F856B8E6B8F6BE55200EE13F011
:1010E000140EE80403E3E5CFEDFFFBD7E5CFFAFFED
:1010F000E5CFF4FFE5CFF3FFE5CFF7FFE5CFF6FF50
:10110000E5CFEAFFE5CFE9FFE5CFDAFF1100D8CF61
:10111000E4FFE0CFE4FFE46EDACFE4FFE2CFDAFFF2
:10112000E9CFE4FFEACFE4FFF6CFE4FFF7CFE4FF37
:10113000F5CFE4FFF3CFE4FFF4CFE4FFFACFE4FF11
:1011400000EE00F0140EE80403E3EECFE4FFFBD75B
:1011500000EE14F0070EE80403E3EECFE4FFFBD744
:10116000E652F2A410D0F2948F0EE66EE80EE66E10
:10117000F0EC0AF0E552E55283868CC0E6FF93EC72
:101180000BF0E5528396E55200EE1AF0070EE804E4
:1011900003E3E5CFEDFFFBD700EE13F0140EE804F8
:1011A00003E3E5CFEDFFFBD7E5CFFAFFE5CFF4FF93
:1011B000E5CFF3FFE5CFF5FFE5CFF7FFE5CFF6FF8E
:1011C000E5CFEAFFE5CFE9FFE5CFDAFFE550E5CF70
:0811D000E0FFE5CFD8FF10009D
:0811D800006A0EAEF5EF08F00D
:1011E0000D6C0E1EE86A0E22001E09AEFDEF08F01F
:1011F000086C091EE86A0922001E3FEC0BF009BECC
:101200000DEF09F000AE000C086C091EE86A092217
:10121000046C051EE86A0522000C00BE04EF09F00C
:101220000188FF0C09C013F008C012F008500D022D
:10123000F4CF07F0F3CF06F009500E02F4CF09F017
:10124000F3CF08F00D02F3500726F4500822E86AA5
:10125000092212500E02F3500726F4500822E86AC1
:1012600009220EAE38EF09F01250085E1350095AE9
:0E12700013AE000C0D50085E0E50095A000C13
:02127E001E0E42
:10128000F66E000EF76E000EF86E00010900F550C4
:10129000A46F0900F550A56F03E1A46701D03DD00C
:1012A0000900F5509F6F0900F550A06F0900F55037
:1012B000A16F09000900F550E96E0900F550EA6ECA
:1012C000090009000900F550A26F0900F550A36F4D
:1012D00009000900F6CFA6F0F7CFA7F0F8CFA8F0E5
:1012E0009FC0F6FFA0C0F7FFA1C0F8FF0001A25306
:1012F00002E1A35307E00900F550EE6EA207F8E201
:10130000A307F9D7A6C0F6FFA7C0F7FFA8C0F8FF4C
:0C1310000001A407000EA55BBFD712006F
:04131C00D9CFE6FF40
:10132000DACFE6FFE1CFD9FFE2CFDAFFE652E652AD
:10133000E652E652D950FB0F146EFF0EDA20156EFE
:1013400014C0DEFFDD6EDECFE6FFDDCFE6FFFB0E75
:10135000DBCFE6FFFC0EDBCFE6FFFD0EDBCFE6FFCB
:10136000A9C0E6FFAAC0E6FF32EC00F0146E070E3B
:10137000E15C02E2E16AE552E16E1450020EF3CF45
:10138000DBFF030EF4CFDBFF020EDBCF14F0030E06
:10139000DBCF15F014C0F3FF15C0F4FF040EE15CC1
:1013A00002E2E16AE552E16EE552E5CFDAFFE7CF0E
:0413B000D9FF12004F
:0C13B400D9CFE6FFDACFE6FFE1CFD9FF8A
:1013C000E2CFDAFFAC6AAB6AFD0EDBB0AC88DBA221
:1013D00002D0AC8CAB8CDBB4AC8EDBA602D0AB887D
:1013E00001D0AB8ADBB8AC849E98DBBAAB86DBACB1
:1013F00002D09D8A01D09D9A9E9ADBAE02D09D8834
:1014000001D09D98FB0EDB50AF6EFB0EFC0EDBCFC8
:1014100015F015C014F0156A1450B06EAC8AAB8E7E
:10142000949C948EAC50100B04E0AC50800B01E106
:0E143000948CE552E5CFDAFFE7CFD9FF12002A
:02143E00D9CF04
:10144000E6FFDACFE6FFE1CFD9FFE2CFDAFFFB0E0E
:10145000DBCF14F0FC0EDBCF15F00001800E15146D
:101460001AE1FB0EDBCFE9FFFC0EDBCFEAFFEECF8C
:10147000F3FFEDCFF4FFEE2A000EEF22F3CFE9FFEA
:10148000F4CFEAFFFD0EDBCFEFFFEF50156AF36EEE
:1014900015C0F4FF10D0FB0EDB50FE0806E1FD0E78
:1014A000DBCFE6FF85EC0BF005D0FD0EDBCFE6FFD2
:1014B00003EC00F0E552E552E5CFDAFFE7CFD9FFC4
:0214C000120018
:0E14C20006500B02F3CF02F0F4CF03F00C0241
:1014D000F3500326000EF420046E06500D02F35064
:1014E0000426000EF420056E06500E02F350052669
:1014F00007500B02F3500326F4500422000E05227D
:1015000007500C02F3500426F450052207500D0238
:10151000F350052608500B02F3500426F450052220
:1015200008500C02F350052609500B02F350052613
:021530001200A7
:0E153200FE0EE3CFE9FFFF0EE3CFEAFFF36A00
:10154000F46AEE5203E0F34AF42AFBD71200FF0ECE
:10155000E3CFF8FFE552FF0EE3CFF7FFE552FF0EB2
:10156000E3CFF6FFE552E66AE66AE66A0900F5525D
:1015700009E0FD0EE32A05E1FE0EE32A02E1FF0E7B
:10158000E32AF4D7FD0EE3CF07F0FE0EE3CF08F019
:08159000FF0EE3CF09F0120089
:08159800056A046A036A026A95
:1015A000200EE76ED8900636073608360936023622
:1015B0000336043605360B50025C0C5003580D50B0
:1015C00004580E50055809E30B50025E0C50035AA4
:1015D0000D50045A0E50055A062AE72EE4D7120081
:1015E000D9CFE6FFDACFE6FFE1CFD9FFE2CFDAFFCE
:1015F000E652E652FC0EDBCFDEFFDBCFDDFF010E55
:10160000DB50D76EDF50D66EE552E552E552E5CF9E
:08161000DAFFE7CFD9FF120059
:08161800D9CFE6FFDACFE6FFAF
:10162000E1CFD9FFE2CFDAFFFD0EDB507F0BD56EA5
:10163000D76AD66AF294FD0EDBAE02D0F28A01D0F0
:10164000F29AD58EE552E5CFDAFFE7CFD9FF120047
:10165000FF0EE350206EEF0E01D0F30EE76EE72E83
:101660002FEF0BF00C0E1F6EE76AE72E35EF0BF035
:0E1670001F2E34EF0BF0202E2DEF0BF012008A
:02167E00056AFB
:10168000046A100EE76ED89008360936043605361F
:101690000D50045C0E50055805E30D50045E0E50CD
:0A16A000055A082AE72EF0D71200C1
:0616AA00F36AF46AFF0E72
:1016B000E124E96EFF0EE220EA6EED6607D02F0E00
:0E16C000EF6404D03A0EEF6001D0F32A12005E
:0216CE00000E0C
:1016D000F36E00EE00F0060E01D81200EA6002D0B0
:0E16E000EE6AFCD7F350E9601200EE6AFCD708
:0216EE0015EEF7
:1016F00000F025EE00F0F86A019C3FEC09F009ECDF
:0A17000000F02DEC06F0FBD71200FC
:06170A00FF0EE350ACBA33
:1017100004D0AF6AAB8EAC8A949CACA2FED7AD6EFF
:06172000F36EF46A1200F2
:0A172600FF0EE350E84E1200000031
:0C17300000D000D000D0E82EFAD7120044
:04173C0030313233E3
:0D1740003435363738396162636465660000
:03174D0000000099
:0D175000000000F00000000000910000000B
:020000040030CA
:0100010008F6
:0100020019E4
:010003001EDE
:010006008178
:00000001FF
